:020000020000FC
:100000000C94230B18951895189518951895189514
:100010001895189518951895189518950C9423050A
:100020000C945005189518951895189518951895CD
:100030001895189518951895189518951895189558
:1000400018951895189518950C946D0A189518958B
:100050000C94740A0C943E001895189518951895F0
:100060000C943C0218951895000000E904060066FF
:10007000047A049204A604BE04D204008A93FA937C
:10008000EA933A922A921A920A927A936A935A932C
:100090004A933A932A931A930A938FB72091780040
:1000A00000917900102F00E00F7F1F7030E0022BCD
:1000B000132B009332021093330201E000933A02B3
:1000C000F89400917C000034A1F400913202109168
:1000D0003302009336021093370201E000933B0293
:1000E0000E94D20600E000937A0001E400937C00B5
:1000F00035C000917C00013491F4009132021091DE
:100100003302009338021093390201E000933B025E
:1001100000E000937A0002E400937C001FC000918D
:100120007C00023491F4009132021091330200936A
:1001300034021093350201E000933B0200E000938B
:100140007A0000E400937C0009C001E000933B02C8
:1001500000E000937A0000E400937C0078948FBF65
:1001600009911991299139914991599169917991FF
:100170000990199029903990E991F99189911895F0
:1001800042E350E000913402109135020E94560B78
:10019000085D1F4F00933E0210933F0200913E0204
:1001A00010913F0220914002309141020217130743
:1001B00089F000E010E0009362021093630203E014
:1001C00000935C0200913E0210913F0200934002B6
:1001D00010934102089500913B020130D1F4ECE309
:1001E000F2E0008111810F5F1F4F00831183E091C6
:1001F0003C02F0913D02339760F002E000933B0235
:1002000000E010E000933C0210933D020CEC0093E0
:100210007A00089500919802109199020E941B0B98
:1002200002331040DCF4F894009198021091990286
:1002300000933002109331027894009130021091B3
:10024000310240E050E00E944D0B00E010E00093CE
:1002500062021093630204E000935C0208950CECC8
:1002600000937A0000E400937C000895F89403B1B1
:10027000097F009344020091440205B9789403E099
:100280000A95F1F70000F89403B10E7F0093440241
:100290000091440205B909B10E7F00934502009117
:1002A00045020BB909B10E7F00934502E5E4F2E087
:1002B000008101600083009145020BB903B10B7FFF
:1002C00000934402E4E4F2E00081046000830091C2
:1002D000440205B978940895F89403B10E7F009311
:1002E00044020091440205B909B10E7F0093450212
:1002F000009145020BB9789403E00A95F1F70000EC
:10030000F89403B10D7F009344020091440205B9B3
:10031000789403E00A95F1F70000F89403B10B7F9D
:1003200000934402E4E4F2E0008104600083009161
:10033000440205B909B10E7F00934502E5E4F2E0FD
:10034000008101600083009145020BB97894089503
:1003500000917302033011F489DF0895F89403B11A
:10036000097F009344020091440205B9789403E0A8
:100370000A95F1F70000F89403B10E7F0093440250
:10038000E4E4F2E00081016000830091440205B9D9
:1003900009B10E7F00934502E5E4F2E000810160BF
:1003A0000083009145020BB978940895009173027F
:1003B000013011F491DF0895F89403B10E7F00939A
:1003C00044020091440205B909B10E7F0093450231
:1003D000009145020BB9789403E00A95F1F700000B
:1003E000F89403B1097F009344020091440206602F
:1003F000009344020091440205B97894089500E204
:100400000093B80000E00093B9000FEF0093BB0029
:1004100004E00093BC0008951091BC00012F01700E
:1004200008950E94D20DD801822FF6DF0023E9F74C
:1004300080935602FD010081009346020C9100FD5D
:100440000FC001E00BC010E0FD01E00FF11F2081A3
:1004500010E0F801EA5BFD4F20830395081798F33D
:1004600000E00093570208EF0093000205EA0093B2
:10047000BC00E4E00C94DB0D9A938A93FA93EA9320
:100480003A932A931A930A933FB70091B900085000
:1004900089F0085079F0085081F0005171F0005156
:1004A00009F45EC00850C1F1005141F1085009F44F
:1004B00045C05AC000E000935802009158021091C4
:1004C0005602011790F40091580210E0F801EA5B1F
:1004D000FD4F00810093BB000091580203950093EB
:1004E000580205E80093BC0046C0E7E5F2E0008151
:1004F0000160008304E90093BC003DC02091BB0073
:100500000091580210E0F801EA5BFD4F2083009152
:1005100058020395009358020091580210E0809110
:10052000560290E001970817190724F405EC009390
:10053000BC0021C005E80093BC001DC02091BB0099
:100540000091580210E0F801EA5BFD4F2083E7E5D7
:10055000F2E000810160008304E90093BC000BC05D
:1005600005EA0093BC0007C00091B90000930002A7
:1005700004E90093BC003FBF099119912991399179
:10058000E991F9918991999118950E94D00D2801CE
:100590005520B2F144E650E082010E946E0BA02F7C
:1005A00044E650E082010E946E0B2A014AE050E0CE
:1005B00082010E946E0B802F4AE050E082010E946F
:1005C0006E0B2A01AA2309F4ABE0AB3019F488239F
:1005D00009F48BE0B0E0FD01EF5FFD4F0081009377
:1005E000590290E0FC01EF5FFD4F008100935A0239
:1005F0005524F201EF5FFD4F008100935B0229C09B
:100600000DE940160FEF500624F182010E941B0BEA
:1006100028014AE050E082010E946E0B802F4AE0E0
:1006200050E082010E946E0B2A01882309F48BE0BE
:1006300002E00093590290E0FC01EF5FFD4F008162
:1006400000935A025524F201EF5FFD4F00810093A1
:100650005B02E6E00C94D90D409162025091630276
:10066000483E33E0530738F40093590210935A027E
:1006700020935B0208954091620250916302485EAC
:100680005340483E33E0530750F400E000935902D2
:1006900000E000935A0200E000935B02089540914D
:1006A000620250916302405D5740483E33E0530779
:1006B00038F40093590210935A0220935B02089574
:1006C0000091620210916302085B1B40083E23E028
:1006D000120750F400E00093590200E000935A0220
:1006E00000E000935B0208950091620210916302A2
:1006F000013A2FE0120748F000E010E00093620298
:100700001093630200E000935C02089500915C0284
:10071000005051F00A9511F10A9569F10A95C1F15D
:100720000A9509F44FC00895E2E6F2E000811181D4
:100730000F5F1F4F008311830091620210916302CB
:10074000013D27E0120748F001E000935D0200E060
:1007500010E00093620210936302089500919E02DC
:100760000130E1F1E2E6F2E0008111810F5F1F4FFD
:1007700000831183089500919E02013079F1E2E631
:10078000F2E0008111810F5F1F4F008311830895F4
:10079000E2E6F2E0008111810F5F1F4F00831183B9
:1007A0000091620210916302093823E11207B0F050
:1007B00000E010E0009362021093630200E00093F7
:1007C0005C020895E2E6F2E0008111810F5F1F4FA5
:1007D0000083118322E012E002E03EDF08950091E1
:1007E0005C02005049F00A9509F448C00A9509F4E2
:1007F00045C00A95F1F1089500919E02005021F044
:100800000A9561F00A95A1F50AE3009359020EE8F2
:1008100000935A020EE800935B02089500915D0276
:10082000013061F500E000935D02009142021091F9
:100830004302093C20E0120784F400914202109127
:1008400043020E941B0B033010406CF400E010E0E8
:10085000009342021093430206C008EC10E000939C
:1008600042021093430200914202109143028DDE36
:10087000089500913E0210913F0287DE08950BB16A
:1008800003700BB905B10F7105B9089501FB16F49A
:100890002B9A01C02B9829B123700C7F200F2BB904
:1008A00003B10F71107E010F05B90895EEE5F2E076
:1008B000008111810F5F1F4F00831183009160023F
:1008C00010916102E8E6F0E00C948D0DD8DFE09124
:1008D0005E02F0915F02339760F001E010E0009358
:1008E00060021093610200E010E000935E0210933A
:1008F0005F02089510910D0200915902C7DFE09147
:100900005E02F0915F023B9760F002E010E000931E
:1009100060021093610200E010E000935E02109309
:100920005F020895ACDFE0915E02F0915F023397C1
:1009300060F003E010E0009360021093610200E0B9
:1009400010E000935E0210935F02089510910E0272
:1009500000915A029BDFE0915E02F0915F023B97AB
:10096000C0F104E010E0009360021093610200E027
:1009700010E000935E0210935F02089580DFE09123
:100980005E02F0915F02339720F105E010E00093E2
:1009900060021093610200E010E000935E02109389
:1009A0005F02089510910F0200915B026FDFE091EA
:1009B0005E02F0915F023B9760F000E010E0009370
:1009C00060021093610200E010E000935E02109359
:1009D0005F0208950E9406050E9413050E942F01E0
:1009E0000E94010B0E94550A0E945B090E94FF01B0
:1009F00078940E94C0000E94F0080E94EF030E94B9
:100A0000CB090E94DB0A0E94CC08F3CF0FEE04B999
:100A100000E105B908E007B900E008B90FEF0AB92D
:100A200000E00BB9089502E00093B00003E00093EA
:100A3000B10002E30093B30002E30093B40006E0C8
:100A40000093700008958A93FA93EA933A922A9257
:100A50001A920A927A936A935A934A933A932A93F0
:100A60001A930A938FB7F8940E946B070E94EB00C9
:100A70000E94320A0E9456040E94860378948FBF17
:100A800009911991299139914991599169917991D6
:100A90000990199029903990E991F99189911895C7
:100AA0008A93FA93EA933A922A921A920A927A9342
:100AB0006A935A934A933A932A931A930A938FB755
:100AC000F894E4E6F2E0008111810F5F1F4F00838C
:100AD00011830E94A40A0E94D20878948FBF0991C2
:100AE0001991299139914991599169917991099077
:100AF000199029903990E991F9918991189500E020
:100B000010E000936F021093700200E00093660201
:100B100000E00093670200E010E020E030E0E8E64B
:100B2000F2E0008311832283338300E000936C02A0
:100B300000E010E000936D0210936E020895AC0186
:100B400000919E02013009F08EC000914202109186
:100B5000430280913E0290913F02039708171907C4
:100B6000CCF400917102033089F40091420210919B
:100B7000430280913E0290913F02049708171907A3
:100B800009F478C002E00093710274C002E000939F
:100B9000710270C0009142021091430280913E02A6
:100BA00090913F020397081719077CF000914202C9
:100BB0001091430220913E0230913F020217130729
:100BC00024F403E00093710255C000914202109199
:100BD000430220913E0230913F020217130721F495
:100BE00004E00093710246C000914202109143025A
:100BF00020913E0230913F020217130784F00091CA
:100C000042021091430280913E0290913F0203966E
:100C10000817190724F405E0009371022BC0809196
:100C20003E0290913F0203960091420210914302CE
:100C300080179107FCF400917102053081F4009156
:100C400042021091430280913E0290913F0204962D
:100C50000817190779F006E0009371020BC006E04F
:100C60000093710207C000919E02023019F401E066
:100C700000937102CA0108950091710210917202ED
:100C8000011709F44FC03BDF00917102015051F090
:100C90000A9511F10A95D1F10A95E1F10A95D9F178
:100CA0000A95E1F500917202053079F40091730222
:100CB000013021F401E00093740230C001E00093A0
:100CC000670200E00093750229C001E0009367020B
:100CD00000E00093750222C000917202033079F4A3
:100CE00000917302033021F401E00093750216C0F5
:100CF00001E00093670200E0009374020FC001E07E
:100D00000093670200E00093740208C000E00093C3
:100D1000740204C003C000E00093750200917102E8
:100D200000937202089500917102015059F00A95E2
:100D300099F00A95D9F00A95E9F00A9501F10A951A
:100D400011F12BC000917402002319F40E94D60106
:100D500008950E946C01089500917502002319F412
:100D60000E94A80108950E943601089501E00093B1
:100D7000660208950E9436010E946C01089501E008
:100D800000936602089500917402002319F40E94F2
:100D9000D60108950E946C0108950E9436010E94B8
:100DA0006C010895009136021091370201591140EB
:100DB000053920E01207A8F4009176021091730221
:100DC000011759F000917602023019F402E0009305
:100DD000730202E000937602089502E00093760227
:100DE00008950091360210913702055412400C3DCF
:100DF00020E01207A8F40091760210917302011707
:100E000059F000917602033019F403E00093730265
:100E100003E000937602089503E0009376020895BC
:100E20000091360210913702013223E01207A8F038
:100E30000091760210917302011759F00091760229
:100E4000013019F401E00093730201E0009376028F
:100E5000089501E000937602089500913602109102
:100E60003702083C20E01207A0F4009176021091AE
:100E70007302011759F000917602053019F405E06C
:100E80000093730205E000937602089505E0009355
:100E90007602089500917302053011F40E940A0150
:100EA00008950091380210913902093C20E01207A0
:100EB00040F000916C02013069F001E000936C0297
:100EC000089500E000936C0200E010E000936D02D2
:100ED00010936E0208959A938A9300916C020130E8
:100EE000A1F5EDE6F2E0008111810F5F1F4F008355
:100EF000118300916D0210916E02083823E11207F0
:100F000021F500E010E000936D0210936E0202E004
:100F100000936C020E9436010E946C01F0DD00918A
:100F20007102015029F00A9541F0045059F00DC0AA
:100F300001E000937402439808C001E00093750239
:100F4000439A03C001E000937402009171020630DD
:100F500009F4439A00916702013009F075C0E8E690
:100F6000F2E000811181228133810F5F1F4F2F4FEB
:100F70003F4F0083118322833383E8E6F2E0008150
:100F8000118122813381003F49E4140742E02407A4
:100F900040E0340730F500917102015021F00A95CC
:100FA00089F00450F1F400917302013019F401E06A
:100FB0000093740200917302023099F400E00093F0
:100FC00074020FC000917302033021F401E000931A
:100FD0007502439A00917302023019F400E0009305
:100FE0007502E8E6F2E00081118122813381003F41
:100FF00049E4140742E0240740E0340728F100E008
:1010000010E020E030E0E8E6F2E000831183228384
:10101000338302E00093670200917102013021F0F6
:1010200000917102063021F401E00093740207C0C0
:1010300000917102023019F401E0009375020091F1
:101040007102013009F4439800919E02023029F4A4
:1010500000917302013009F4439800916602013057
:1010600009F097C000917102015081F10A9571F168
:101070000A9539F00A9551F10A95B1F00A9531F1C6
:1010800025C080913E0290913F0204970091420258
:101090001091430280179107CCF404E911E1009309
:1010A00010021093110212C00091420210914302EB
:1010B00080913E0290913F0204960817190734F47C
:1010C00004E911E10093100210931102EFE6F2E03F
:1010D000008111810F5F1F4F0083118300916F0208
:1010E0001091700220911002309111020217130723
:1010F00028F40E9436010E946C013DC000916F02ED
:101100001091700220911002309111020217130702
:1011100090F100916F0210917002083823E11207DC
:1011200050F500917102033091F400917502002393
:1011300059F400917302033021F4439A0E9436015E
:101140001AC00E94A80117C00E94360114C0009165
:101150007102053081F400917402002351F4009172
:101160007302013019F40E946C0105C00E94D6017F
:1011700002C00E946C0100916F0210917002083849
:1011800023E1120730F000E010E000936F021093AB
:101190007002899199910895D2DC6EDDC4DD7ADE0A
:1011A00080DE0895009181020130C9F4E2E8F2E0A6
:1011B000008111810F5F1F4F008311830091820214
:1011C000109183020D3320E0120748F000E010E098
:1011D000009382021093830202E00093810208953B
:1011E0009A938A9322E002E112E00E94110201E048
:1011F0000093810200918102002321F0009181027D
:101200000230C1F725E00CE112E00E9411020E94B9
:101210000C020023E1F780E090E009C0FC01EA5BEA
:10122000FD4F0081FC01E958FD4F00830196853098
:1012300000E0900798F3F8940091790210E020E024
:1012400030E0E4E8F2E00083118322833383E4E8B2
:10125000F2E0408151816281762F652F542F40E06A
:1012600000917A0210E020E030E0400F511F621F31
:10127000731FE4E8F2E04083518362837383E4E800
:10128000F2E0408151816281762F652F542F40E03A
:1012900000917B0210E020E030E0400F511F621F00
:1012A000731FE4E8F2E04083518362837383789490
:1012B0008991999108950E94D20D08E11CEF009345
:1012C00088021093890208EE13E000938A021093BB
:1012D0008B0206E616E626E230E0E0E9F2E0008363
:1012E00011832283338309E919E929ED30E0E4E928
:1012F000F2E0008311832283338300918A021091EC
:101300008B022091880230918902021B130B212F3E
:10131000220F220B322F0E94D20BC801D901E4E91F
:10132000F2E00081118122813381E0E9F2E0408125
:10133000518162817381041B150B260B370B0E94B0
:10134000D20BA801B9018C019D010E94060DECE8A9
:10135000F2E00083118322833383E4E00C94DB0DFD
:101360000E94CE0D888599854A845B846C847D8437
:10137000F894041B150B260B370B0E94D20BA2010D
:10138000B3010E948D0C0E94DD0B080F191F789489
:10139000EEE00C94D70DECE8F2E00081118122819F
:1013A00033813A932A931A930A93009188021091F9
:1013B00089021A930A93E0E9F2E040815181628147
:1013C0007381E4E8F2E00081118122813381C8DF7A
:1013D0000093980210939902F8940091980210914A
:1013E00099022091300230913102021B130B0093BD
:1013F000420210934302789408951023101791F03D
:10140000022F005039F00250F1F0035029F00A95F4
:1014100029F006C025E017C022E015C022E013C065
:1014200020E011C0022F005071F0025039F003503B
:1014300019F00A9529F006C020E005C026E003C097
:1014400020E001C020E0022F089503B10071009355
:101450009B0220919A0210919B0200E1CEDF009343
:101460009A020895ECE9F2E0008111810F5F1F4FAD
:101470000083118300919C0210919D02093E23E09C
:10148000120738F000E010E000939C0210939D02D8
:10149000DCDF00919A02023021F401E000939E0209
:1014A000089502E000939E02089540E050E00E94FB
:1014B0003F0B0093300210933102009130021091E3
:1014C00031020E941B0B0E31104034F000E010E09E
:1014D000009330021093310208950A930FB7F894E5
:1014E00078940FBF09911895FA93EA932A931A9367
:1014F0000A932FB7F89400919F020130B1F4009144
:10150000A102053078F40091A10210E0F801EF5536
:10151000FD4F02810093C6000091A1020395009344
:10152000A10203C001E00093A0022FBF099119910D
:101530002991E991F99118951091C000212F25FF6B
:10154000FBCF0093C60008959A938A930091C4023A
:10155000013071F5E5ECF2E0008111810F5F1F4F62
:1015600000831183E091C502F091C602F39700F168
:1015700000E010E00093C5021093C60200E0009363
:10158000A10280E090E009C0FC01EA5DFD4F00810E
:10159000FC01EF55FD4F02830196853000E0900776
:1015A00098F302E0C9DF0091A10203950093A10224
:1015B000899199910895F8942091420230914302C3
:1015C000293C10E031070CF008EC12E010932602E1
:1015D00010919E021093270220913E022093280230
:1015E000009329022091260200912702200F0091EA
:1015F0002802200F00912902200F20932A027894BC
:10160000089527E630E08901012F0093C50020935B
:10161000C40002E00093C00008E40093C10006E0AB
:101620000093C20001E000939F0201E00093C40216
:1016300008950C940E0E11231AF411950195104083
:101640009801890108950FEF0DBF01E00EBFC0E8BA
:10165000D1E00E94E40D002311F00E94F40D0E94DD
:10166000EA040E94540B0C94190BF999FECF0895CB
:101670004F5F5F4FFADF41BD52BDF89A0895FADF20
:1016800000B5F6DF10B508954F5F5F4F41BD52BD05
:10169000F894FA9AF99A0FBE08950FB6E6DF00BDE6
:1016A000F5DFE3DF10BDF0CF0C94190B00241124FB
:1016B000EFE0001F111F001C111C0416150610F08E
:1016C000041A150AEA95AAF7001F111FA001009538
:1016D000109508955195419550400895FF27552341
:1016E00012F4F160F7DF112312F4F09507D00E9495
:1016F000560BF0FD03D0F1FDEDCF08951195019546
:10170000104008954A952AF0369527951795079524
:10171000F9CF089530952095109501951F4F2F4FC3
:101720003F4F0895FF27112477FB660F771F08941A
:1017300009F4771F679517F8EE27002437FB220F6F
:10174000331F089409F4331F279507F8089527FDE0
:101750000EC0EE0F001F111F221F3A953230B8F74E
:10176000332319F427FD31E002C027FF30E0E038D1
:1017700021F400FF08940EF488940F4F1F4F2F4F51
:101780003F4F323038F4332319F427FD31E002C0E3
:1017900027FF30E03F3F29F0220F000C37952795B7
:1017A0000895A7C0032E002012F40E948A0BE02F98
:1017B000012F122F232F3EE9D1CFBEDF432F4F57EA
:1017C00048F04F3148F007FC8EC03FE72FEF1FEF86
:1017D0000FEF0895332789C0322F212F102F0E2F9E
:1017E0004F5141950E94820B07FE08950C948A0B7D
:1017F000F901EE0FFF1F37FBFF3F31F0EF2BE12B1D
:10180000E02B8894B8940895E02BE12B21F0089404
:101810009894B89408959894889438940895FB0106
:10182000EE0FFF1F77FBFF3F31F0EF2BE52BE42B93
:101830008894B8940895E42BE52B69F3E8CFEFDFA3
:1018400068F021F43723262F8A010895372FFBCF24
:10185000E6DF20F00BF008957327EAF74EC0C8DFEB
:10186000E8F3B3F361F3DBDFC8F383F3A1F35ADFEB
:10187000401751076207730731F4011411F1002476
:10188000E89488942BC078F0332E372F732D322EA6
:10189000262F632D312E152F532D302E042F432D3F
:1018A000302C012C132C371739F066955795479536
:1018B000F795E0407395F7CFE7FBEE0FE0E01024DB
:1018C0006AF0EF0F041F151F261F60F42795179568
:1018D0000795E79508F46894339540CFEF0B040B18
:1018E000150B260B3BCF302D3078222711270027F0
:1018F00008953FE7302920E8F9CF3FEF2FEFF6CFEB
:101900008EDFD8F3D1F370783727089588DFA8F3F6
:10191000A3F3F9CF3078372796CF6ADF70F383F3DC
:10192000A9F37DDF50F3B3F3A9F3FCDE0124E894BF
:101930003F57E040370FEF1F12F0D9F603C03A3E91
:1019400090F26894E0E00A92AA933A93AA2733248B
:1019500022243327049FF001059FF00D712D731F82
:10196000149FF00D711D221C069F700D211C331C4D
:10197000159F700D211C331E249F700D211C331EDA
:10198000169F200C311CAA1F259F200C311CA31F61
:10199000269F300CA11D39915EF43395A69537949E
:1019A00027947795F795E79533953130BCF316C0BA
:1019B000AA2322F0332351F4339510C0339571F4E8
:1019C000A991099096CFA7FD09C03A95EE0FFF1F88
:1019D000771F221C331CAA1F3230A8F7E894FE2B75
:1019E00009F068942A2F8101E72FA9910990BFCEB1
:1019F00016DF10F00BF087CF80CF11DFE9F3E0F3B3
:101A0000032E072670CF032E072673CFF1DEA0F337
:101A10007BF399F304DF80F39BF3A9F383DE0124C6
:101A200027FD06C0000F111F221F3150E040F8CFE4
:101A300067FD06C0440F551F661F7150F040F8CF78
:101A4000E894371BEF0B3158EF4F2AF0EE23E9F6FD
:101A50003F3FD9F203C03A3EA8F26894E0E0F0E0DC
:101A60001124139440175107620738F0315008F4DD
:101A70006894000F111F221FEE1F041B150B260B6D
:101A8000EF0B000F111F221FEE1F0A9279E17A95CA
:101A9000AAF0041715072607EF0730F0041B150BF3
:101AA000260BEF0B089401C08894111C221C331CD8
:101AB000001C000F111F221FEE1FE9CFF0F9E89460
:101AC000E22BE12BE02B09F06894069437942794DD
:101AD0001794E79508F468947395B9F30990332344
:101AE00011F0F0FF09C0369427941794E79508F495
:101AF000689433953130BCF3012D122D232D37CE50
:101B00007591659155914591159011FA25903590F3
:101B10000895F9DF041B10E003C0F4DF041B150B6C
:101B200020E030E005C0ECDF041B150B260B370B63
:101B3000B8F010FC17C045910590E00FF11F041795
:101B4000100540E02407340758F436F404910024CB
:101B5000F101E01BF0090994E00FF11F2590359089
:101B6000F101099411F4D6F7F1CF31960EF03196C8
:101B700050E060E070E045914B3F48F089F34F3F03
:101B800029F04E3F11F07591659155914591041BD7
:101B9000150B260B370B39F318F3E7CF7A926A92BD
:101BA0005A924A92BA93AA939A938A9308957F80FD
:101BB0006E805D804C80BB81AA8199818881F0E034
:101BC000EC0FFD1FEF01089501E0089520E006D01D
:101BD000E9F70895259102D0E9F708952D93015072
:101BE0001040202F212B08958EE19CE1FC010591EE
:101BF0001491FC013296A591B491FC013496259183
:101C00003491422F432B19F0F901E4DF01C0DEDFEC
:101C100006961CE18A32910748F30895FFCF97009A
:101C200030020000300000022A1CF8FC60DAF26684
:101C3000B6BEE4FEF60200C0A060561398AA0000EB
:101C400000000000000099000000000000000000FB
:0A1C50000102030400000000000080
:0400000300000000F9
:00000001FF
