:020000020000FC
:100000000C94950B189518951895189518951895A2
:100010001895189518951895189518950C945405D9
:100020000C9483051895189518951895189518959A
:100030001895189518951895189518951895189558
:1000400018951895189518950C94DA0A189518951E
:100050000C94E10A0C943E00189518951895189583
:100060000C94670218951895000000160506009379
:1000700004A704BF04D304EB04FF04008A93FA939B
:10008000EA933A922A921A920A927A936A935A932C
:100090004A933A932A931A930A938FB72091780040
:1000A00000917900102F00E00F7F1F7030E0022BCD
:1000B000132B009332021093330201E000933A02B3
:1000C000F89400917C000034A1F400913202109168
:1000D0003302009336021093370201E000933B0293
:1000E0000E94050700E000937A0001E400937C0081
:1000F00035C000917C00013491F4009132021091DE
:100100003302009338021093390201E000933B025E
:1001100000E000937A0002E400937C001FC000918D
:100120007C00023491F4009132021091330200936A
:1001300034021093350201E000933B0200E000938B
:100140007A0000E400937C0009C001E000933B02C8
:1001500000E000937A0000E400937C0078948FBF65
:1001600009911991299139914991599169917991FF
:100170000990199029903990E991F99189911895F0
:1001800042E350E0E4E3F2E0008111810E94C80BF9
:10019000085D1F4FEEE3F2E000831183EEE3F2E02F
:1001A00000811181E0E4F2E0208131810217130720
:1001B00089F0E2E6F2E000E0008300E0018303E082
:1001C00000935C02EEE3F2E000811181E0E4F2E0F2
:1001D0000083118308959D0100913B020130D1F409
:1001E000ECE3F2E0008111810F5F1F4F0083118368
:1001F000ACE3B2E0ED91FC91339760F002E0009344
:100200003B02ECE3F2E000E0008300E001830CEC51
:1002100000937A00D9010895F894E8E9F2E00081AA
:100220001181E0E3F2E0008311837894E0E3F2E0EF
:100230000081118140E050E00E94BF0BE2E6F2E055
:1002400000E0008300E0018304E000935C02089575
:100250000CEC00937A0000E400937C000895F8947D
:1002600003B1097F00934402E4E4F2E000810061FD
:1002700000830091440205B9789403E00A95F1F7F0
:100280000000F89403B10E7F00934402E4E4F2E02E
:100290000081006100830091440205B909B10E7F1D
:1002A00000934502009145020BB909B10E7F0093FE
:1002B0004502E5E4F2E0008101600083009145021F
:1002C0000BB903B10B7F00934402E4E4F2E0008138
:1002D00004600083E4E4F2E00081006100830091A7
:1002E000440205B978940895F89403B10E7F009301
:1002F0004402E4E4F2E000810061008300914402E2
:1003000005B909B10E7F00934502009145020BB972
:10031000789403E00A95F1F70000F89403B10D7F9B
:1003200000934402E4E4F2E0008100610083009164
:10033000440205B9789403E00A95F1F70000F894B7
:1003400003B10B7F00934402E4E4F2E00081046017
:100350000083E4E4F2E00081006100830091440244
:1003600005B909B10E7F00934502E5E4F2E0008192
:1003700001600083009145020BB9789408950091C3
:100380007302033011F46BDF0895F89403B1097F11
:1003900000934402E4E4F2E00081006100830091F4
:1003A000440205B9789403E00A95F1F70000F89447
:1003B00003B10E7F00934402E4E4F2E000810160A7
:1003C0000083E4E4F2E000810061008300914402D4
:1003D00005B909B10E7F00934502E5E4F2E0008122
:1003E00001600083009145020BB978940895009153
:1003F0007302013011F478DF0895F89403B10E7F91
:1004000000934402E4E4F2E0008100610083009183
:10041000440205B909B10E7F0093450200914502DF
:100420000BB9789403E00A95F1F70000F89403B152
:10043000097F009344020091440206600093440245
:10044000E4E4F2E00081006100830091440205B918
:100450007894089500E20093B80000E00093B9009A
:100460000FEF0093BB0004E00093BC0008951091CF
:10047000BC00012F017008950E941B0ED801822F2D
:10048000F6DF0023E9F780935602FD010081009317
:1004900046020C9100FD0FC001E00BC010E0FD0111
:1004A000E00FF11F208110E0F801EA5BFD4F20838F
:1004B0000395081798F300E00093570208EF0093A4
:1004C000000205EA0093BC00E4E00C94200E9A932D
:1004D0008A93FA93EA933A932A931A930A933FB72B
:1004E0000091B900085089F0085079F0085081F067
:1004F000005171F0005109F45EC00850C1F1005183
:1005000041F1085009F445C05AC000E00093580278
:100510000091580210915602011790F40091580270
:1005200010E0F801EA5BFD4F00810093BB000091F1
:10053000580203950093580205E80093BC0046C09A
:10054000E7E5F2E000810160008304E90093BC006C
:100550003DC02091BB000091580210E0F801EA5B19
:10056000FD4F20830091580203950093580200919B
:10057000580210E08091560290E001970817190781
:1005800024F405EC0093BC0021C005E80093BC00F6
:100590001DC02091BB000091580210E0F801EA5BF9
:1005A000FD4F2083E7E5F2E000810160008304E96C
:1005B0000093BC000BC005EA0093BC0007C000918B
:1005C000B9000093000204E90093BC003FBF099109
:1005D000199129913991E991F991899199911895F8
:1005E0009A938A9398013323B2F144E650E089014B
:1005F0000E94DB0B602F44E650E089010E94DB0B78
:100600009A014AE050E089010E94DB0B802F4AE00A
:1006100050E089010E94DB0B9A01662309F46BE02C
:100620006B3019F4882309F48BE070E0FB01EF5F75
:10063000FD4F00810093590290E0FC01EF5FFD4FF8
:10064000008100935A0230E0F901EF5FFD4F008115
:1006500000935B0228C02D390FEF300724F1890188
:100660000E948F0B98014AE050E089010E94DB0B49
:10067000802F4AE050E089010E94DB0B9A01882319
:1006800009F48BE002E00093590290E0FC01EF5F77
:10069000FD4F008100935A0230E0F901EF5FFD4FFA
:1006A000008100935B02899199910895E2E6F2E05E
:1006B00040815181483E33E0530738F4009359029A
:1006C00010935A0220935B020895E2E6F2E0408123
:1006D0005181485E5340483E33E0530750F400E0F8
:1006E0000093590200E000935A0200E000935B027D
:1006F0000895E2E6F2E040815181405D5740483E76
:1007000033E0530738F40093590210935A022093B0
:100710005B020895E2E6F2E000811181085B1B4074
:10072000083E23E0120750F400E00093590200E075
:1007300000935A0200E000935B020895E2E6F2E0C3
:1007400000811181013A2FE0120748F0E2E6F2E061
:1007500000E0008300E0018300E000935C02089564
:1007600000915C02005051F00A9511F10A9569F16F
:100770000A95C1F10A9509F44FC00895E2E6F2E046
:10078000008111810F5F1F4F00831183E2E6F2E0C9
:1007900000811181013D27E0120748F001E000933C
:1007A0005D02E2E6F2E000E0008300E001830895EC
:1007B00000919E020130E1F1E2E6F2E00081118158
:1007C0000F5F1F4F00831183089500919E02013037
:1007D00079F1E2E6F2E0008111810F5F1F4F0083A3
:1007E00011830895E2E6F2E0008111810F5F1F4F4F
:1007F00000831183E2E6F2E000811181093823E1F0
:100800001207B0F0E2E6F2E000E0008300E00183CE
:1008100000E000935C020895E2E6F2E000811181BD
:100820000F5F1F4F0083118322E012E002E03EDFE2
:10083000089500915C02005051F00A9509F44CC0F3
:100840000A9509F449C00A9509F441C00895009138
:100850009E02005021F00A9531F00A95B9F500E0AA
:1008600010E0BEDE089500915D020130A9F500E0C0
:1008700000935D02E2E4F2E000811181093C20E096
:10088000120784F4E2E4F2E0008111810E948F0BF0
:10089000063010406CF4E2E4F2E000E0008300E097
:1008A000018306C0E2E4F2E008EC10E0008311836B
:1008B000E2E4F2E01181112322F400E010E090DE86
:1008C0000895E2E4F2E0008111818ADE0895EEE30A
:1008D000F2E00081118184DE08950BB103700BB941
:1008E000089501FB16F42B9A01C02B9829B12370AF
:1008F0000C7F200F2BB903B10F71107E010F05B9CA
:100900000895BA93AA93EEE5F2E0008111810F5F9A
:100910001F4F00831183E0E6F2E000811181E8E6D9
:10092000F0E00C94DF0DD9DFAEE5B2E0ED91FC9183
:10093000339760F0E0E6F2E001E010E0008311831D
:10094000EEE5F2E000E0008300E001836FC010916B
:100950000D0200915902C5DFAEE5B2E0ED91FC91C8
:100960003B9760F0E0E6F2E002E010E000831183E4
:10097000EEE5F2E000E0008300E0018357C0ADDF68
:10098000AEE5B2E0ED91FC91339760F0E0E6F2E085
:1009900003E010E000831183EEE5F2E000E0008365
:1009A00000E0018343C010910E0200915A0299DFCA
:1009B000AEE5B2E0ED91FC913B97C0F1E0E6F2E0EC
:1009C00004E010E000831183EEE5F2E000E0008334
:1009D00000E001832BC081DFAEE5B2E0ED91FC9138
:1009E000339720F1E0E6F2E005E010E000831183A8
:1009F000EEE5F2E000E0008300E0018317C0109113
:100A00000F0200915B026DDFAEE5B2E0ED91FC916B
:100A10003B9760F0E0E6F2E000E0008300E0018355
:100A2000EEE5F2E000E0008300E00183A991B991D6
:100A300008950E9437050E9444050E9428010E94E3
:100A4000750B0E94840A0E949A090E942A027894D7
:100A50000E94C0000E942F090E9419040E94050AEA
:100A60000E94480B0E940B090E94BE0AF1CF0FEEB4
:100A700004B900E105B908E007B900E008B90FEFD3
:100A80000AB900E00BB9089502E00093B00003E05A
:100A90000093B10002E30093B30002E30093B400BB
:100AA00006E00093700008958A93FA93EA933A92CD
:100AB0002A921A920A927A936A935A934A933A9391
:100AC0002A931A930A938FB7F8940E949E070E9464
:100AD000EB000E946C0A0E9481040E94B0030E94F5
:100AE0008D0A78948FBF0991199129913991499173
:100AF0005991699179910990199029903990E991CA
:100B0000F991899118958A93FA93EA933A922A92E5
:100B10001A920A927A936A935A934A933A932A932F
:100B20001A930A938FB7F894E4E6F2E000811181FA
:100B30000F5F1F4F008311830E94110B0E94110948
:100B400078948FBF099119912991399149915991BF
:100B5000699179910990199029903990E991F991C9
:100B600089911895EFE6F2E000E0008300E0018350
:100B700000E00093660200E000936702E8E6F2E01E
:100B800000E0008300E0018300E0028300E00383D3
:100B900000E000936C02EDE6F2E000E0008300E08C
:100BA00001830895AC0100919E02013009F08EC0CE
:100BB000E2E4F2E000811181EEE3F2E080819181D4
:100BC000059708171907CCF400917102033089F4D6
:100BD000E2E4F2E000811181EEE3F2E080819181B4
:100BE00006970817190709F478C002E0009371020C
:100BF00074C002E00093710270C0E2E4F2E0008190
:100C00001181EEE3F2E080819181059708171907C1
:100C10007CF0E2E4F2E000811181EEE3F2E0208179
:100C200031810217130724F403E00093710255C0C9
:100C3000E2E4F2E000811181EEE3F2E02081318113
:100C40000217130721F404E00093710246C0E2E4A6
:100C5000F2E000811181EEE3F2E0208131810217A0
:100C6000130784F0E2E4F2E000811181EEE3F2E0A8
:100C70008081918105960817190724F405E00093F7
:100C800071022BC0EEE3F2E0808191810596E2E4EF
:100C9000F2E00081118180179107FCF4009171024C
:100CA000053081F4E2E4F2E000811181EEE3F2E04C
:100CB0008081918106960817190779F006E0009364
:100CC00071020BC006E00093710207C000919E0202
:100CD000023019F401E000937102CA0108950091F5
:100CE000710210917202011709F44FC03BDF0091AD
:100CF0007102015051F00A9511F10A95D1F10A954E
:100D0000E1F10A95D9F10A95E1F5009172020530F9
:100D100079F400917302013021F401E00093740230
:100D200030C001E00093670200E00093750229C023
:100D300001E00093670200E00093750222C0009179
:100D40007202033079F400917302033021F401E060
:100D50000093750216C001E00093670200E0009363
:100D600074020FC001E00093670200E00093740278
:100D700008C000E00093740204C003C000E00093C8
:100D80007502009171020093720208950091710240
:100D9000015059F00A9599F00A95D9F00A95E9F0B1
:100DA0000A9501F10A9511F12BC0009174020023FC
:100DB00019F40E94F70108950E94740108950091AA
:100DC0007502002319F40E94BF0108950E942F01AB
:100DD000089501E00093660208950E942F010E9489
:100DE0007401089501E00093660208950091740271
:100DF000002319F40E94F70108950E9474010895D8
:100E00000E942F010E9474010895E6E3F2E0008140
:100E1000118101591140053920E01207A8F4009111
:100E2000760210917302011759F000917602023098
:100E300019F402E00093730202E000937602089531
:100E400002E0009376020895E6E3F2E0008111816A
:100E5000055412400C3D20E01207A8F400917602E0
:100E600010917302011759F000917602033019F4C2
:100E700003E00093730203E000937602089503E019
:100E8000009376020895E6E3F2E0008111810132D9
:100E900023E01207A8F00091760210917302011767
:100EA00059F000917602013019F401E000937302C9
:100EB00001E000937602089501E000937602089520
:100EC000E6E3F2E000811181083C20E01207A0F483
:100ED0000091760210917302011759F00091760289
:100EE000053019F405E00093730205E000937602E3
:100EF000089505E00093760208950091730205308D
:100F000011F40E940C010895E8E3F2E000811181E0
:100F1000093C20E0120740F000916C02013069F0BA
:100F200001E000936C02089500E000936C02EDE68E
:100F3000F2E000E0008300E0018308959A938A9331
:100F400000916C020130A1F5EDE6F2E00081118123
:100F50000F5F1F4F00831183EDE6F2E000811181E6
:100F6000083823E1120721F5EDE6F2E000E0008306
:100F700000E0018302E000936C020E942F010E94B6
:100F80007401F0DD00917102015029F00A9541F0E1
:100F9000045059F00DC001E000937402439808C05A
:100FA00001E000937502439A03C001E000937402CC
:100FB00000917102063009F4439A009167020130F2
:100FC00009F075C0E8E6F2E00081118122813381E9
:100FD0000F5F1F4F2F4F3F4F0083118322833383B7
:100FE000E8E6F2E00081118122813381003F49E48B
:100FF000140742E0240740E0340730F50091710205
:10100000015021F00A9589F00450F1F40091730227
:10101000013019F401E00093740200917302023070
:1010200099F400E0009374020FC000917302033042
:1010300021F401E000937502439A0091730202309B
:1010400019F400E000937502E8E6F2E000811181F6
:1010500022813381003F49E4140742E0240740E045
:10106000340728F1E8E6F2E000E0008300E00183C5
:1010700000E0028300E0038302E000936702009136
:101080007102013021F000917102063021F401E07B
:101090000093740207C000917102023019F401E05C
:1010A0000093750200917102013009F44398009198
:1010B0009E02023029F400917302013009F4439832
:1010C00000916602013009F0A3C000917102015045
:1010D000E1F10A95D1F10A9529F00A95B1F10A9545
:1010E000D9F033C0EEE3F2E0808191810697E2E42B
:1010F000F2E000811181801791073CF4E0E1F2E019
:1011000002EF12E10083118320C0E0E1F2E004E984
:1011100011E10083118319C0E2E4F2E00081118142
:10112000EEE3F2E0808191810696081719073CF4FE
:10113000E0E1F2E002EF12E10083118306C0E0E19A
:10114000F2E004E911E100831183EFE6F2E00081AF
:1011500011810F5F1F4F00831183EFE6F2E00081E2
:101160001181E0E1F2E0208131810217130728F4B8
:101170000E942F010E9474013DC0EFE6F2E0008161
:101180001181E0E1F2E0208131810217130790F133
:10119000EFE6F2E000811181083823E1120750F5F3
:1011A00000917102033091F400917502002359F40B
:1011B00000917302033021F4439A0E942F011AC058
:1011C0000E94BF0117C00E942F0114C0009171023C
:1011D000053081F400917402002351F400917302F0
:1011E000013019F40E94740105C00E94F70102C089
:1011F0000E947401EFE6F2E000811181083823E1DA
:10120000120730F0EFE6F2E000E0008300E0018337
:10121000899199910895C6DC62DDB8DD6EDE74DED9
:101220000895009181020130C9F4E2E8F2E0008102
:1012300011810F5F1F4F00831183E2E8F2E000810C
:1012400011810D3320E0120748F0E2E8F2E000E0FF
:10125000008300E0018302E00093810208959A93E5
:101260008A9322E002E112E00E943C0201E0009336
:10127000810200918102002321F00091810202305D
:10128000C1F725E00CE112E00E943C020E94370207
:101290000023E1F780E090E009C0FC01EA5BFD4F2C
:1012A0000081FC01E958FD4F00830196853000E084
:1012B000900798F3F8940091790210E020E030E074
:1012C000E4E8F2E00083118322833383E4E8F2E070
:1012D000408151816281762F652F542F40E000912B
:1012E0007A0210E020E030E0400F511F621F731FB0
:1012F000E4E8F2E04083518362837383E4E8F2E040
:10130000408151816281762F652F542F40E00091FA
:101310007B0210E020E030E0400F511F621F731F7E
:10132000E4E8F2E040835183628373837894899187
:10133000999108950E941B0EE8E8F2E008E11CEF85
:1013400000831183EAE8F2E008EE13E000831183E2
:10135000E0E9F2E006E616E626E230E000831183DB
:1013600022833383E4E9F2E009E919E929ED30E069
:101370000083118322833383EAE8F2E00081118144
:10138000E8E8F2E020813181021B130B212F220FAC
:10139000220B322F0E94380CC801D901E4E9F2E097
:1013A0000081118122813381E0E9F2E040815181A5
:1013B00062817381041B150B260B370B0E94380CBE
:1013C000A801B9018C019D010E94470DECE8F2E0F3
:1013D0000083118322833383E4E00C94200EF8947D
:1013E000041B150B260B370B0E94380C4A815B81BE
:1013F0006C817D810E94D20C0E94B90D28813981B7
:10140000020F131F789426960895ECE8F2E000810D
:101410001181228133813A932A931A930A93E8E83F
:10142000F2E0008111811A930A93E0E9F2E0408131
:10143000518162817381E4E8F2E0008111812281AF
:101440003381CDDFE8E9F2E000831183F894E8E925
:10145000F2E000811181E0E3F2E020813181021BA2
:10146000130BE2E4F2E000831183789408951023D3
:10147000101791F0022F005039F00250F1F0035094
:1014800029F00A9529F006C025E017C022E015C012
:1014900022E013C020E011C0022F005071F0025072
:1014A00039F0035019F00A9529F006C020E005C074
:1014B00026E003C020E001C020E0022F089503B120
:1014C000007100939B0220919A0210919B0200E10F
:1014D000CEDF00939A020895ECE9F2E000811181D9
:1014E0000F5F1F4F00831183ECE9F2E0008111814F
:1014F000093E23E0120738F0ECE9F2E000E0008357
:1015000000E00183DCDF089540E050E00E94B10B71
:10151000E0E3F2E000831183089500919F0200232D
:10152000C9F4E0EAF2E0008111810F5F1F4F0083F0
:101530001183E0EAF2E000811181093B2BE0120700
:1015400048F0E0EAF2E000E0008300E0018301E01F
:1015500000939F020895F894E8E9F2E00081118178
:10156000E0E3F2E0008311837894E0E3F2E00081AD
:10157000118140E050E00E94BF0B089500919F024E
:101580000130B9F400919A02023081F400919E0278
:10159000023021F000919E02002321F4DCDF01E003
:1015A00000939E0203E000939A02089502E00093E4
:1015B0009E0208950A930FB7F89478940FBF09918B
:1015C0001895FA93EA932A931A930A932FB7F894EB
:1015D0000091A2020130B1F40091A402053078F428
:1015E0000091A40210E0F801EC55FD4F0281009338
:1015F000C6000091A40203950093A40203C001E079
:101600000093A3022FBF099119912991E991F991B2
:1016100018951091C000212F25FFFBCF0093C60025
:1016200008950E941B0E0091C702013071F5E8EC8D
:10163000F2E0008111810F5F1F4F00831183A8EC3E
:10164000B2E0ED91FC91F39700F1E8ECF2E000E0FC
:10165000008300E0018300E00093A40280E090E0BA
:1016600009C0FC01EA5DFD4F0081FC01EC55FD4F16
:1016700002830196853000E0900798F302E0C9DF0D
:101680000091A40203950093A402E4E00C94200EC0
:10169000F894E2E4F2E020813181293C10E0310746
:1016A0000CF008ECE2E4F2E0318133230AF400E0CC
:1016B00012E01093260210919E0210932702EEE38F
:1016C000F2E0208120932802009329022091260233
:1016D00000912702200F00912802200F009129027B
:1016E000200F20932A027894089507E610E09801CD
:1016F000232F2093C5000093C40002E00093C00094
:1017000008E40093C10006E00093C20001E00093EA
:10171000A20201E00093C70208950C94510E112318
:101720001AF411950195104008950FEF0DBF01E0D7
:101730000EBFC0E8D1E00E94290E002311F00E94E4
:10174000370E0E9419050E94C60B0C948D0BF99957
:10175000FECF08954F5F5F4FFADF41BD52BDF89A4B
:101760000895FADF00B5F6DF10B508954F5F5F4FBB
:1017700041BD52BDF894FA9AF99A0FBE08950FB67A
:10178000E6DF00BDF5DFE3DF10BDF0CF0C948D0B7D
:1017900000241124E0E1001F111FEA9542F0001C13
:1017A000111C04161506B8F3041A150AF4CFA0018B
:1017B000009510950895FF27552312F4F1600FD07E
:1017C000112312F4F09507D00E94C80BF0FD03D04E
:1017D000F1FD05C0089511950195104008955195AA
:1017E00041955040089536952795179507954A9548
:1017F000D2F7089530952095109501951F4F2F4FE2
:101800003F4F0895FF27172E660F771F089409F49E
:10181000771F6795EE27032E220F331F089409F4D4
:10182000331F27950895222342F0323030F03A9545
:10183000EE0F001F111F221FC2F7E03821F400FF36
:1018400008940EF488940F4F1F4F2F4F3F4F3230A4
:1018500038F4332319F427FD31E002C027FF30E0CC
:101860003F3F29F0220F000C37952795089586C039
:10187000032E002012F40E94FA0BE02F012F122FEA
:10188000232F3EE9E894CFCFF901EE0FFF1F37FB7E
:10189000FF3F31F0EF2BE12BE02B8894B8940895B3
:1018A000EE2321F008949894B8940895989488941D
:1018B00038940895FB01EE0FFF1F77FBFF3F31F0D7
:1018C000EF2BE52BE42B8894B8940895EE2371F365
:1018D000E9CFF0DF68F021F43723262F8A0108953D
:1018E000372FFBCFE7DF20F00BF008957327EAF7DF
:1018F00049C0CADFE8F3B3F361F3DCDFC8F383F375
:10190000A1F380DF401751076207730729F4302CD9
:101910003124E2F400242CC058F0F9019B01BF01EE
:10192000F8018A01AF01E0E0F0E0302C012C132C2B
:10193000731B39F0669557954795F795E040739579
:10194000C9F7E7FBEE0FE0E010246AF0EF0F041F89
:10195000151F261F60F4279517950795E79508F43E
:101960006894339560CFEF0B040B150B260B5BCF00
:10197000302D307822271127002708953FE730299E
:1019800020E8F9CF3FEF2FEFF6CF94DFD8F3D1F374
:101990007078372708958EDFA8F3A3F3F9CF307856
:1019A00037279BCF71DF70F383F3A9F383DF50F305
:1019B000B3F3A9F327DF0124E8943F57E040370F42
:1019C000EF1F12F021F0DACF393E90F26894302CFC
:1019D000049FF001059F7727F00D711D149F2224AD
:1019E000F00D711D221C069F0027700D211C001F89
:1019F000249F4427700D211C041F159F700D211C6E
:101A0000041F169F1127200C011D111F259F200C5C
:101A1000011D141F269F000D111D5EF433951695B0
:101A2000079527947795F795E79533953130BCF373
:101A300014C0112322F0332349F433950EC033959B
:101A400061F4032C9BCF3A95313038F0EE0FFF1F35
:101A5000771F221C001F111FB2F7E894FE2B09F01C
:101A60006894212F102F022DE72F032CE6CE22DFC2
:101A700020F01BF070783727089584CF1BDFE9F33F
:101A8000E0F3032E072674CF032E072677CFFCDE64
:101A9000A0F36BF399F30EDF80F39BF3A9F3B2DEAF
:101AA000012427FD06C03150E040000F111F221F06
:101AB000D2F767FD06C07150F040440F551F661FF6
:101AC000D2F7E894371BEF0B3158EF4F2AF0EE2393
:101AD000E9F63F3FD9F203C0393EA8F26894E0E04E
:101AE000F0E040175107620738F0315008F468946D
:101AF000000F111F221FEE1F71E01124222409C0C4
:101B0000000F111F221FEE1F041715072607EF07EE
:101B100020F0041B150B260BEF0B771F111C221C4A
:101B200078F7000F111F221FEE1F04171507260755
:101B3000EF073E2EF0F9E894E0E839F008F4E0E031
:101B4000322A312A302A09F0689470951094209432
:101B5000332311F0F0FF09C0269417947795E79589
:101B600008F4689433953130BCF3072F112D222DE2
:101B700064CE50DE3F5748F03F3168F007FCF8CEA6
:101B80003FE72FEF1FEF0FEF089530E020E08901CE
:101B900010E000E00895432F322F212F102F0E2F39
:101BA0004F5141950E94F70B07FE08950C94FA0BD4
:101BB00055914591159011FA259035900895F8DFCB
:101BC000041B150B20E030E000C0B8F010FC17C07B
:101BD00045910590E00FF11F0417100540E0240720
:101BE000340758F436F404910024F101E01BF009A5
:101BF0000994E00FF11F25903590F101099411F43B
:101C0000D6F7F1CF31960EF0319650E060E070E0FB
:101C100045914B3F48F089F34F3F29F04E3F11F07B
:101C20007591659155914591041B150B260B370B4A
:101C300039F318F3E7CFBA93AA939A938A93089546
:101C4000BB81AA8199818881F0E0EC0FFD1FEF0133
:101C5000089501E0089520E02D9301501040E1F730
:101C6000089525912D9301501040D9F7089584EAE5
:101C70009CE1FC0105911491FC013296A591B4916F
:101C8000FC01349625913491422F432B19F0F90130
:101C9000E8DF01C0E0DF06961CE1803B910748F3D6
:101CA0000895FFCF9A003002000030000002B01CFF
:101CB000F8FC60DAF266B6BEE4FEF60200C0A06090
:101CC000561398AA000000000000000099000000D0
:101CD00000000000000001020304000000000000FA
:040000030000172AB8
:00000001FF
